:020000040800F2
:10000000000002208D0100089301000897010008FC
:10001000090200080D020008550200080000000057
:1000200000000000000000000000000021050008A2
:10003000A102000800000000C10500082506000814
:100040008901000889010008890100088901000868
:100050008901000889010008890100088901000858
:100060008901000889010008890100088901000848
:100070008901000889010008890100088901000838
:100080008901000889010008890100088901000828
:100090008901000889010008890100088901000818
:1000A0008901000889010008890100088901000808
:1000B00089010008890100088901000889010008F8
:1000C00089010008890100088901000889010008E8
:1000D00089010008890100088901000889010008D8
:1000E00089010008890100088901000889010008C8
:1000F00089010008890100088901000889010008B8
:1001000089010008890100088901000889010008A7
:100110008901000889010008890100088901000897
:100120008901000889010008890100088901000887
:100130008901000889010008890100088901000877
:100140008901000889010008890100088901000867
:100150008901000889010008890100088901000857
:100160008901000889010008890100088901000847
:1001700089010008890100088901000800000000C9
:10018000890100088901000800BEFEE708B500F0FB
:1001900093F800BEFEE71EF0040F0CBFEFF30880DB
:1001A000EFF309807146414A10472DE9F04182B0D2
:1001B00004460D46124B5F6BD3F838809E6A1B6B6A
:1001C00013F0020F03D00E4BDB6A002B0BDB0D4844
:1001D00002F05CF9009543463A463146204602F06B
:1001E00029F800BEFEE74BF6AB6102F09DF800284F
:1001F000EDD0034B4FF00042DA6202B0BDE8F0816F
:1002000000ED00E0044B000800BEFEE71EF0040F06
:100210000CBFEFF30880EFF309807146244A1047C2
:100220002DE9F04182B004460D46084B5F6BD3F8D0
:1002300038809E6A064802F029F9009543463A46FE
:100240003146204601F0F6FF00BEFEE700ED00E07B
:10025000144B00081EF0040F0CBFEFF30880EFF3FF
:1002600009807146134A10472DE9F04182B00446D7
:100270000D46084B5F6BD3F838809E6A064802F043
:1002800005F9009543463A463146204601F0D2FF33
:1002900000BEFEE700ED00E0204B000800BEFEE7D8
:1002A00000BEFEE700BEFEE770470000AB0100089D
:1002B000210200086902000800B583B002F0A4F82A
:1002C000384B394A1360394A1360394906E052F80D
:1002D000041B43F8041B9842F9D86146354B9942F8
:1002E00005D20A684B6801F10C0C8868F3E72E4BC5
:1002F0001A68314B9A4200D0FEE72C4B1A682F4BFC
:100300009A42F9D1274B2E4A13602E4A13602E4A87
:1003100000E002462D4B9A4209D2104650F8083BA5
:1003200051689942F5D9002243F8042BF9E7244B90
:100330001B6813B9234B1B6803B1FEE701F04CFEA9
:10034000694601A802F080F9214C224BE41AA4105E
:10035000002504E01F4B53F8253098470135AC4287
:10036000F8DC1D4C1D4BE41AA410002504E01B4BC7
:1003700053F8253098470135AC42F8DC00990198D4
:1003800001F092FE0546164C164BE41AA41004E048
:10039000013C144B53F824309847002CF8DC2846D5
:1003A00002F0EEF8BABADECA0000002070000020A9
:1003B000E803000800040008785634123254769896
:1003C000740000203C3101200004000810040008E3
:1003D00010040008100400081004000810040008AD
:0803E0001004000810040008DD
:1003E800D04C00080000002074000020D04C000809
:1003F80000000010000000107400002040310120AF
:080408000000001000000010CC
:1004100000F1080343604FF0FF328260C360036164
:1004200000230360704700230361704743684B60FB
:100430009A688A60516099600861036801330360BB
:10044000704730B40D68B5F1FF3F11D000F10803DB
:100450001C465B681A68AA42FAD963684B609960C7
:100460008C606160086103680133036030BC7047D1
:100470000469F2E70369416882688A6041685160F3
:100480005A68824205D0002202611868013818605B
:10049000704782685A60F6E70B4B1B68B3F1FF3F69
:1004A00008D04FF0500383F31188BFF36F8FBFF371
:1004B0004F8FFEE74FF0500383F31188BFF36F8F28
:1004C000BFF34F8FFEE700BF04000020064800681E
:1004D000006880F3088862B661B6BFF34F8FBFF340
:1004E0006F8F00DF00BF000008ED00E04FF0807369
:1004F00040F8043C21F0010140F8081C054B40F88D
:100500000C3C40F8202C6FF0020340F8243C4438A7
:10051000704700BF990400080000000000000000C0
:10052000074B19680868B0E8F04F80F30988BFF3FB
:100530006F8F4FF0000080F311887047AFF3008099
:10054000D82D01204FF0500383F31188BFF36F8F34
:10055000BFF34F8F0B4A136801331360012B00D098
:1005600070474FF0E023D3F8043D13F0FF0FF7D0AE
:100570004FF0500383F31188BFF36F8FBFF34F8F9A
:10058000FEE700BF04000020094B1B6843B94FF091
:10059000500383F31188BFF36F8FBFF34F8FFEE7D4
:1005A000013B034A13600BB983F31188704700BF06
:1005B0000400002000000000000000000000000017
:1005C000EFF30980BFF36F8F154B1A681EF0100F01
:1005D00008BF20ED108A20E9F04F10604DF8043D6F
:1005E0004FF0500080F31188BFF34F8FBFF36F8F30
:1005F00001F0AAF84FF0000080F3118808BC1968D8
:100600000868B0E8F04F1EF0100F08BFB0EC108A79
:1006100080F30988BFF36F8F704700BFAFF300808E
:10062000D82D012008B54FF0500383F31188BFF394
:100630006F8FBFF34F8F00F00BFF28B14FF0E02317
:100640004FF08052C3F8042D002383F3118808BDB6
:10065000064B1B68064AA2FB03239B09013B4FF094
:10066000E022536107231361704700BF0800002098
:10067000D34D62104FF0E023D3F8002D344B9A4253
:100680001CD04FF0E023D3F8002D324B9A421ED0FD
:1006900010B582B0304B1A78D2B20192FF221A7094
:1006A0001B78DBB28DF803309DF8033003F0500364
:1006B0002A4A13702A4B07221A601BE04FF050039E
:1006C00083F31188BFF36F8FBFF34F8FFEE74FF0B7
:1006D000500383F31188BFF36F8FBFF34F8FFEE793
:1006E0001F4A1368013B13609DF803305B00DBB2C7
:1006F0008DF803309DF8033013F0800FF0D1184AC5
:1007000013681B02136003F4E0631360019BDBB208
:10071000114A13704FF0E024D4F8203D43F47003E5
:10072000C4F8203DD4F8203D43F07043C4F8203D88
:10073000FFF78EFF0B4B00221A60D4F8343F43F0D2
:100740004043C4F8343FFFF7C1FEFFF7A5FE00BFEA
:1007500071C20F4170C20F4100E400E07C00002034
:100760007800002004000020EFF305830F2B0FD941
:10077000114A9B5CDBB2114A12789A4208D94FF0B9
:10078000500383F31188BFF36F8FBFF34F8FFEE7E2
:100790004FF0E023D3F80C3D03F4E063084A1268FD
:1007A000934208D94FF0500383F31188BFF36F8F42
:1007B000BFF34F8FFEE77047F0E300E07C000020BE
:1007C00078000020124A12F0070F1ED0D11D21F030
:1007D0000701C1F5963313440A460E480260002112
:1007E00041601344083B23F007030B480360596042
:1007F0001960991A51601360084B1960084B196011
:10080000084B4FF000421A6070474FF49633E4E70C
:1008100098000020900000208C0000208400002020
:100820008800002080000020164B1A461B68834277
:10083000FBD3516802EB010C844509D0416800EB01
:10084000010C634509D00360904219D010607047D5
:100850004068014451601046F0E710B40A4C246827
:10086000A3420BD05B681944416013681B680360A6
:10087000904200D010605DF8044B70470460F7E7C9
:10088000704700BF900000208C00002038B504465F
:1008900000F0D0FD3B4B1B68ABB13B4B1B681C42CF
:1008A00014D1002C66D004F1080214F0070F02D016
:1008B00022F007020832D2B1344B1B6893421AD39C
:1008C00033490C681DE0FFF77DFFE6E700F054FEBA
:1008D000002501F037FC15F0070F51D04FF0500301
:1008E00083F31188BFF36F8FBFF34F8FFEE700F0E4
:1008F00043FE0025EDE700F03FFE0025E9E7214635
:100900001C466368934202D22368002BF7D11D4B2B
:100910001B68A34214D00D68083523680B60636818
:100920009B1A102B14D9A01810F0070F0CD04FF001
:10093000500383F31188BFF36F8FBFF34F8FFEE730
:1009400000F01AFE0025C4E743606260FFF76CFF09
:1009500062680E490B689B1A0B600E4909688B424E
:1009600001D20C490B60084B1B68134363600023E2
:10097000236000E0002500F0FFFD002DABD1A8E7CB
:10098000284638BD8C000020800000208800002010
:10099000900000208400002080B338B50446A0F108
:1009A000080550F8043C164A1268134208D14FF06B
:1009B000500383F31188BFF36F8FBFF34F8FFEE7B0
:1009C00050F8081C41B14FF0500383F31188BFF376
:1009D0006F8FBFF34F8FFEE723EA020340F8043C1A
:1009E00000F028FD54F8041C064A13680B441360F9
:1009F0002846FFF719FF00F0BFFD38BD704700BF64
:100A00008000002088000020014B1868704700BF5C
:100A10008800002010B50446FFF794FDA26BE36B3D
:100A20009A4204D00024FFF7AFFD204610BD0124F8
:100A3000F9E710B50446FFF785FDA36B23B9012440
:100A4000FFF7A2FD204610BD0024F9E770B504466B
:100A50001546866B026C5AB903681BB1002001363B
:100A6000A66370BD406801F00BF800236360F6E7F1
:100A70006DB9806802F03AFEA368226C1344A3604B
:100A80006268934219D32368A3602846E7E7C068E9
:100A900002F02CFEE368226C51429B1AE36022684C
:100AA000934202D263680B44E360022D01D0002020
:100AB000D5E726B1013E0020D1E72846CFE7002048
:100AC000CDE70346026C6AB110B50846D9681144F7
:100AD000D9605C68A14201D31968D960D96802F075
:100AE00005FE10BD704738B50546FFF72BFD95F89C
:100AF000454064B201E0013C64B2002C0ADD6B6A3F
:100B000043B105F1240000F0B9FE0028F3D000F055
:100B100051FFF0E7FF2385F84530FFF735FDFFF77C
:100B200011FD95F8444064B201E0013C64B2002C30
:100B30000ADD2B6943B105F1100000F09FFE00288B
:100B4000F3D000F037FFF0E7FF2385F84430FFF7DC
:100B50001BFD38BD38B5E0B10D460446FFF7F2FC89
:100B60002368E26B216C01FB023060600020A0630F
:100B7000A360013A02FB0133E360FF2384F84430B1
:100B800084F84530FDB9236963B9FFF7FDFC012006
:100B900038BD4FF0500383F31188BFF36F8FBFF35D
:100BA0004F8FFEE704F1100000F068FE0028ECD043
:100BB0004FF0E0234FF08052C3F8042DBFF34F8F66
:100BC000BFF36F8FE1E704F11000FFF721FC04F1A0
:100BD0002400FFF71DFCD8E738B51D46049C0B46E2
:100BE00049B92460E063236401212046FFF7B2FF86
:100BF00084F84C5038BD2260F4E740B94FF0500300
:100C000083F31188BFF36F8FBFF34F8FFEE7F0B50B
:100C100083B00C461546064689B101FB00F0503002
:100C2000FFF734FE074638B100902B4600F1500222
:100C300021463046FFF7D0FF384603B0F0BD0846E6
:100C4000EDE7F0B585B0019288B10F461D46044628
:100C5000B1B1022D20D1E36B012B1DD04FF0500319
:100C600083F31188BFF36F8FBFF34F8FFEE74FF011
:100C7000500383F31188BFF36F8FBFF34F8FFEE7ED
:100C8000036C002BE5D04FF0500383F31188BFF3C2
:100C90006F8FBFF34F8FFEE700F092FE064658B904
:100CA000019B002B48D04FF0500383F31188BFF312
:100CB0006F8FBFF34F8FFEE700263DE02A4639468F
:100CC0002046FFF7C3FE636A7BB948B14FF0E023CB
:100CD0004FF08052C3F8042DBFF34F8FBFF36F8FD7
:100CE000FFF752FC012005B0F0BD04F1240000F034
:100CF000C5FD0028F4D04FF0E0234FF08052C3F838
:100D0000042DBFF34F8FBFF36F8FE9E7FFF73CFC74
:100D10000020E8E702A800F0F7FD012619E0002313
:100D200084F8443021E0002384F8453023E0204655
:100D3000FFF7D9FE00F020FCFFF704FCA26BE36B89
:100D40009A42BBD3022DB9D0019B002BDED0002EDE
:100D5000E0D0FFF719FC00F06DFBFFF7F3FB94F810
:100D6000442052B2B2F1FF3FD9D094F8452052B29C
:100D7000B2F1FF3FD7D0FFF707FC01A902A800F0AE
:100D8000D9FDD8B92046FFF745FE0028CFD00199FC
:100D900004F1100000F03EFD2046FFF7A4FE00F035
:100DA000EBFB0028C8D14FF0E0234FF08052C3F88E
:100DB000042DBFF34F8FBFF36F8FBDE72046FFF7C2
:100DC00092FE00F0D9FB00208DE72DE9F84390B1A9
:100DD0000F4616461C460546B1B1022C20D1EB6BDE
:100DE000012B1DD04FF0500383F31188BFF36F8F99
:100DF000BFF34F8FFEE74FF0500383F31188BFF32B
:100E00006F8FBFF34F8FFEE7036C002BE5D04FF0E1
:100E1000500383F31188BFF36F8FBFF34F8FFEE74B
:100E2000FFF7A2FCEFF311884FF0500383F3118812
:100E3000BFF36F8FBFF34F8FAA6BEB6B9A4206D352
:100E4000022C04D0002088F31188BDE8F88395F8BF
:100E500045904FFA89F9224639462846FFF7F6FDB4
:100E6000B9F1FF3F06D009F101035BB285F84530C7
:100E70000120E8E76B6A0BB90120E4E705F12400E3
:100E800000F0FCFC18B126B101203060DBE7012046
:100E9000D9E70120D7E72DE9F04184B00192A0B154
:100EA0000E4698460446C9B100F08AFD054608BBC7
:100EB000019B002B00F087804FF0500383F31188D3
:100EC000BFF36F8FBFF34F8FFEE74FF0500383F3F5
:100ED0001188BFF36F8FBFF34F8FFEE7036C002BBA
:100EE000E2D04FF0500383F31188BFF36F8FBFF34D
:100EF0004F8FFEE7002566E0E56831462046FFF7A4
:100F0000E0FDB8F1000F20D17B1EA36323683BB145
:100F100023694BB9FFF738FB012004B0BDE8F0812D
:100F200000F006FE6060F3E704F1100000F0A6FC9C
:100F30000028EFD04FF0E0234FF08052C3F8042D8B
:100F4000BFF34F8FBFF36F8FE4E7E560636A002B59
:100F5000E0D004F1240000F091FC0028DAD04FF03A
:100F6000E0234FF08052C3F8042DBFF34F8FBFF33F
:100F70006F8FCFE7FFF708FB0020CEE702A800F055
:100F8000C3FC012529E0002384F8443031E000232C
:100F900084F8453033E0FFF7D5FA606800F020FDB3
:100FA000FFF7F2FA3BE02046FFF79DFD00F0E4FA80
:100FB00009E02046FFF797FD00F0DEFA2046FFF734
:100FC00038FD002842D1FFF7BDFAA76B002F93D15F
:100FD000019B002BCED0002DD0D0FFF7D5FA00F02A
:100FE00029FAFFF7AFFA94F8442052B2B2F1FF3F6A
:100FF000C9D094F8452052B2B2F1FF3FC7D0FFF7F5
:10100000C3FA01A902A800F095FC0028D1D120461E
:10101000FFF70FFD0028C6D02368002BBBD0019935
:1010200004F1240000F0F6FB2046FFF75CFD00F021
:10103000A3FA0028C7D14FF0E0234FF08052C3F845
:10104000042DBFF34F8FBFF36F8FBCE7002064E721
:101050000023072B0CD8074A52F833200AB101337A
:10106000F7E7044A42F8331002EBC30250607047BE
:10107000704700BF982C012070B504460D461646F7
:10108000FFF760FA94F844305BB2B3F1FF3F0DD044
:1010900094F845305BB2B3F1FF3F0BD0FFF774FA21
:1010A000A36B5BB12046FFF71EFD70BD002384F8E3
:1010B0004430EDE7002384F84530EFE73246294617
:1010C00004F1240000F0BEFBECE70000084B1B68B5
:1010D0001B6823B9074B4FF0FF321A607047044B6F
:1010E0001B68DB68DB685A68024B1A60704700BFF8
:1010F000482D0120E02C012010B50446006BFFF7BD
:101100004BFC2046FFF748FC10BD2DE9F047804618
:101110000D4617469946089EDDF824A00A9C9200C9
:10112000A521206B02F0CAFA236B07F18042013A35
:1011300003EB820727F007074FF0000CBCF1090F03
:1011400009D815F90C3004EB0C0282F8343013B1D5
:101150000CF1010CF2E7002384F83D30042E00D995
:101160000426E662A6640025E564201DFFF75BF90E
:1011700004F11800FFF757F92461C6F10506A661CE
:101180006462256584F854504A4641463846FFF764
:10119000ADF92060BAF1000F01D0CAF80040BDE8F7
:1011A000F087000038B5002407E004EB84029300C8
:1011B0000E481844FFF72CF90134042CF5D90C4DD6
:1011C0002846FFF725F90B4C2046FFF721F90A487E
:1011D000FFF71EF90948FFF71BF90948FFF718F94F
:1011E000084B1D60084B1C6038BD00BF742D0120EA
:1011F000602D01204C2D0120302D01201C2D0120BF
:10120000042D0120482D0120442D012010B5044655
:10121000FFF798F9224A136801331360214B1B68CA
:101220005BB1214B1B686BB91E4B1B68DA6AE36A22
:101230009A4207D81B4B1C6004E01A4B1C601368D1
:10124000012B29D0194A1368013313602364E06A23
:1012500001238340164A11680B43136000EB8000A2
:10126000211D144B03EB8000FFF7E0F8FFF78CF92A
:101270000D4B1B687BB10B4B1B68DA6AE36A9A4221
:1012800009D24FF0E0234FF08052C3F8042DBFF392
:101290004F8FBFF36F8F10BDFFF784FFD2E700BF02
:1012A000002D0120D82D0120F42C0120E42C012058
:1012B000F82C0120742D012070B504460D461D4BFD
:1012C0001E681D4B18680430FFF7D4F848B91A4B54
:1012D0001B68DB6A01229A4018490B6823EA020363
:1012E0000B60B4F1FF3F0DD03444134B1B685C60BE
:1012F000A64210D9124B18680F4B19680431FFF73A
:10130000A0F870BD002DEFD00B4B196804310D48CB
:10131000FFF78CF8F5E70C4B1868074B1968043198
:10132000FFF78FF8094B1B68A342EAD9074B1C60F3
:10133000E7E700BFFC2C0120D82D0120F82C01206C
:10134000442D0120042D0120482D0120E02C0120F6
:101350002DE9F04385B007460E4614461D46900021
:10136000FFF794FAF8B181465820FFF78FFA8046CC
:1013700098B1C0F830900023039302900D9B019325
:101380000C9B00932B46224631463846FFF7BDFEA4
:101390004046FFF73BFF012007E04846FFF7FCFA15
:1013A0004FF0FF3001E04FF0FF3005B0BDE8F083B3
:1013B00000B583B0194B0193002300938222184992
:1013C0001848FFF7C5FF012805D0B0F1FF3F1BD03B
:1013D00003B05DF804FB00F01BFC0128F5D14FF0D1
:1013E000500383F31188BFF36F8FBFF34F8F0E4B02
:1013F0004FF0FF321A600D4B01221A600C4B002295
:101400001A60FFF737F9E3E74FF0500383F31188D1
:10141000BFF36F8FBFF34F8FFEE700BFDC2C0120BF
:10142000EC48000819170008E02C0120F42C0120DA
:10143000FC2C0120024A136801331360704700BF7F
:10144000D82C0120014B1868704700BFFC2C0120EC
:10145000F8B53E4B1B68002B6AD13D4B1D6801352A
:101460001D60C5B93B4B1B681B6843B14FF050036F
:1014700083F31188BFF36F8FBFF34F8FFEE7354AB9
:101480001168354B186810601960344A13680133CD
:101490001360FFF71BFE324B1B68AB423ED900279F
:1014A000304B1B68DB6A03EB83039A002E4B9B587F
:1014B000012B00D901272D4B1B68002B3FD100F0D9
:1014C0004CFE3CE00127234B1B681B6843B3214BB8
:1014D0001B68DB68DC6863689D4226D3261D3046A6
:1014E000FEF7C8FFA36A1BB104F11800FEF7C2FFA4
:1014F000E36A01229A401E49086802430A6003EB2E
:1015000083039A00314618481044FEF78FFFE26AC1
:10151000144B1B68DB6A9A42D4D2D4E70027D2E787
:101520000F4B4FF0FF321A60BAE70D4A1360B7E76E
:101530000E4A13680133136000F00FFE00270D4BB5
:101540001B6803B101273846F8BD00BFD82C012025
:10155000FC2C0120482D0120442D0120E82C0120E5
:10156000E02C0120D82D0120742D0120F02C012029
:10157000F82C0120EC2C012038B5354B1B6843B901
:101580004FF0500383F31188BFF36F8FBFF34F8F7A
:10159000FEE7FEF7D7FF2E4B1A68013A1A601B6868
:1015A000002B4FD12B4B1B680BB900244BE00024C0
:1015B000294B1B681BB3284BDB68DC6804F118005F
:1015C000FEF758FF251D2846FEF754FFE06A012369
:1015D0008340224A11680B43136000EB80002946C8
:1015E0001F4B03EB8000FEF721FFE26A1D4B1B68D7
:1015F000DB6A9A42DCD31C4B01221A60D8E70CB19B
:10160000FFF764FD194B1C6884B9174B1C68D4B1F3
:101610004FF0E0234FF08052C3F8042DBFF34F8FFB
:10162000BFF36F8F01240EE0013C07D0FFF710FFDE
:101630000028F9D00C4B01221A60F5E70B4B002271
:101640001A60E2E70024FEF79FFF204638BD00BF86
:10165000D82C0120002D0120302D0120F82C012054
:10166000742D0120D82D0120EC2C0120F02C01201C
:1016700010B5A8B10446104B1B6843B14FF050039E
:1016800083F31188BFF36F8FBFF34F8FFEE7FFF730
:10169000D1FE00212046FFF70FFEFFF76DFF48B98E
:1016A0004FF0E0234FF08052C3F8042DBFF34F8F6B
:1016B000BFF36F8F10BD00BFD82C0120134B1B68E8
:1016C00013B310B5FFF7B6FE114B1C68FFF754FFBC
:1016D00024B90E4B1B68002BF4D110BDFEF732FF6E
:1016E0000B4BDB68DC68201DFEF7C4FE094A13685B
:1016F000013B1360054A1368013B1360FEF744FF8A
:101700002046FFF7F9FCE4E7704700BF182D0120E1
:101710001C2D0120002D012008B50BE04FF0E02327
:101720004FF08052C3F8042DBFF34F8FBFF36F8F7C
:1017300000F00AFDFFF7C2FF024B1B68012BEDD83A
:10174000F6E700BF742D012008B52D4B1B681BB1B7
:101750002C4B01221A6008BD2A4B00221A602A4B2A
:101760001B681B6B1A68B2F1A53F03D15A68B2F12E
:10177000A53F1BD0244B18681968343100F0E3FCF6
:10178000224B1B68B3FA83F3DBB2C3F11F0303EBF5
:1017900083018A001E498A588AB94FF0500383F3A7
:1017A0001188BFF36F8FBFF34F8FFEE79A68B2F1D6
:1017B000A53FDFD1DB68B3F1A53FDBD1E0E71448FB
:1017C00003EB83018A00024451684968516003EBCE
:1017D000830C4FEA8C0208320244914209D003EB99
:1017E00083039A000A4B13445B68DA68064B1A605D
:1017F000B1E7486862469100054A0A445060EEE746
:10180000D82C0120EC2C0120D82D0120F82C01200F
:10181000742D012058B110B50C46094A11681831D1
:10182000FEF70FFE01212046FFF746FD10BD4FF0E9
:10183000500383F31188BFF36F8FBFF34F8FFEE721
:10184000D82D012038B570B10D4614460A4A1168EA
:101850001831FEF7EBFD0CB14FF0FF35214628465D
:10186000FFF72AFD38BD4FF0500383F31188BFF313
:101870006F8FBFF34F8FFEE7D82D012038B5C368B7
:10188000DC6824B304F118052846FEF7F3FD184B75
:101890001B682BBB251D2846FEF7ECFDE06A0123E3
:1018A0008340144A11680B43136000EB8000294603
:1018B000114B03EB8000FEF7B9FDE26A0F4B1B688A
:1018C000DB6A9A4211D901200D4B186038BD4FF0E8
:1018D000500383F31188BFF36F8FBFF34F8FFEE781
:1018E00029460848FEF7A2FDE7E70020EEE700BF23
:1018F000D82C0120F82C0120742D0120D82D012096
:10190000EC2C0120302D012030B1084A1268026011
:10191000074A1268426070474FF0500383F3118802
:10192000BFF36F8FBFF34F8FFEE700BFE82C01209E
:10193000FC2C012038B5C0B10C460546F1B1FEF7CC
:1019400001FE1A4B1A682368B3F1FF3F27D02868BD
:1019500017490968884202D06968914224D96968A8
:10196000501A834213D801241AE04FF0500383F336
:101970001188BFF36F8FBFF34F8FFEE74FF0500317
:1019800083F31188BFF36F8FBFF34F8FFEE7891A80
:101990000B4423602846FFF7B7FF002400E0002433
:1019A000FEF7F2FD204638BD0124F9E7FC2C0120AA
:1019B000E82C0120014B01221A607047EC2C012019
:1019C000054B1B6833B1054B1B680BB100207047FA
:1019D0000220704701207047F42C0120D82C0120F0
:1019E000002845D038B50446C36A224A1268D26A34
:1019F000934214D28269002A05DB1E4A1268D26A19
:101A0000C2F105028261616903EB83031A4A02EBAA
:101A10008303994204D0174B1B68DB6AE36238BD2D
:101A2000251D2846FEF726FD90B1124B1B68D86A8B
:101A3000E06201238340114A11680B43136000EBFD
:101A4000800029460C4B03EB8000FEF7EFFCE6E735
:101A5000E36A03EB8301084A52F82120002AE4D10B
:101A600001229A4005490B6823EA02030B60DCE778
:101A7000704700BFD82D0120742D0120F82C0120C3
:101A800000284BD038B50446264B1B68834208D04B
:101A90004FF0500383F31188BFF36F8FBFF34F8F65
:101AA000FEE7C36C43B94FF0500383F31188BFF3D3
:101AB0006F8FBFF34F8FFEE7013BC364C16A826C37
:101AC00091422DD00BB1002038BD051D2846FEF7F0
:101AD000D1FC68B9E36A03EB8301134A52F8212071
:101AE00032B901229A4011490B6823EA02030B60C4
:101AF000A06CE062C0F10503A361012404FA00F3C5
:101B00000A4A11680B43136000EB80002946064B1C
:101B100003EB8000FEF78AFC2046D5E700207047E3
:101B20000020D1E7D82D0120742D0120F82C0120B0
:101B3000054B1B6823B1044B1A68D36C0133D36483
:101B4000014B1868704700BFD82D0120064B1A685A
:101B50001368B3FA83F35B09036013B9D368186899
:101B600070470020704700BFEC2D012008B5416090
:101B7000006191420CD8D21A83699A4201D30120A4
:101B800008BD011D094B1868FEF75BFC0020F7E754
:101B90009A4201D2994206D2011D054B1868FEF700
:101BA00050FC0020ECE70120EAE700BFE82D01200F
:101BB000EC2D012038B5FEF7C5FC0F4B1B6813B1A7
:101BC000FEF7E2FC38BD0D4D2846FEF721FC0C4C1B
:101BD0002046FEF71DFC0B4B1D600B4B1C600022CA
:101BE0000C210A20FFF709F8034B18600028E7D002
:101BF0000649FFF72DFAE3E7E42D0120042E01202A
:101C0000F02D0120EC2D0120E82D0120F4480008E2
:101C100000B583B0FFF7CEFF0D4B1B685BB10D4BDA
:101C200001930223009300234FF482720A490B4868
:101C3000FFF78EFB40B94FF0500383F31188BFF3D9
:101C40006F8FBFF34F8FFEE703B05DF804FB00BF5B
:101C5000E42D0120E02D0120FC480008211F000890
:101C6000B8B19C4603461848006858B300B585B023
:101C700001910292039305291CDCFFF7A1FE0228C3
:101C800010D000231A4601A90F480068FEF7D9FFBB
:101C900015E04FF0500383F31188BFF36F8FBFF34C
:101CA0004F8FFEE70023069A01A907480068FEF758
:101CB000C8FF04E00023624601A9FFF786F805B0DB
:101CC0005DF804FB00207047E42D012070B582B060
:101CD0001A4B1B681A6852B3DB681E68DC68251D46
:101CE0002846FEF7C7FB636A20469847E369012B45
:101CF000EED1A36933449E4207D263602461294632
:101D00000E4B1868FEF79DFBE2E7002100910B46A1
:101D100032462046FFF7A4FF0028D9D14FF05003E8
:101D200083F31188BFF36F8FBFF34F8FFEE7044A31
:101D3000106802490860136002B070BDEC2D0120EC
:101D4000E82D012038B50546FFF77CFB0446074B1C
:101D50001B68834205D800232B60044B1C6020467F
:101D600038BDFFF7B3FF01232B60F6E7DC2D012020
:101D700070B582B006460D4614490968C968CC683A
:101D8000201DFEF777FBE169012904D0636A204634
:101D9000984702B070BDA16933462A4631442046B7
:101DA000FFF7E4FE0028F1D0002100910B463246F7
:101DB0002046FFF755FF0028E8D14FF0500383F38A
:101DC0001188BFF36F8FBFF34F8FFEE7EC2D01201B
:101DD00070B582B006460C46FFF72CFB01A8FFF752
:101DE000B1FF019B23BB054644B9B0420CD3FFF7BA
:101DF000C3FB29463046FFF7BBFF1BE00E4B1B68B9
:101E00001C68B4FA84F464092246711B0B4B1868F1
:101E1000FFF732F9FFF7B0FB60B94FF0E0234FF066
:101E20008052C3F8042DBFF34F8FBFF36F8F01E0D3
:101E3000FFF7A2FB02B070BDE82D0120E42D0120C8
:101E400010B586B000231A4603A934480068FFF78E
:101E500022F8002860D0039B002BF3DB059C63690C
:101E600013B1201DFEF706FB02A8FFF76BFF039BD3
:101E7000092BE7D801A252F823F000BFA51E0008E5
:101E8000A51E0008A51E0008451E0008EB1E000840
:101E9000111F0008A51E0008A51E0008451E000809
:101EA000EB1E0008049BA169024619442046FFF777
:101EB0005DFE0028C6D0636A20469847E369012B7F
:101EC000C0D1A269002100910B460498024420462B
:101ED000FFF7C6FE0028B5D14FF0500383F31188F9
:101EE000BFF36F8FBFF34F8FFEE70499A16131B14C
:101EF0000346024601442046FFF738FEA2E74FF0B2
:101F0000500383F31188BFF36F8FBFF34F8FFEE74A
:101F10002046FEF741FD95E706B010BDE42D0120F7
:101F200000B583B001A8FFF711FE0199FFF750FF3C
:101F3000FFF786FFF6E7000030B595B00024019466
:101F4000224B1A6C42F080521A641B6C03F08053CF
:101F50000193019B02941E4B1A6842F480421A605E
:101F60001B6803F480430293029B012308934FF400
:101F7000803309934FF480030F93082310934FF499
:101F8000A873119302251295072313930E9508A8A1
:101F900000F0CEFD0F230393049505944FF4A05356
:101FA00006934FF480530793052103A801F0AAF884
:101FB00001F0BAF9074BA3FB0030800900F08AFD5D
:101FC000042000F09BFD15B030BD00BF003802407A
:101FD00000700040D34D621008B500F0E5FCFFF73B
:101FE000ABFF00F0C5F808BD08B50A460146024837
:101FF00000F04CFAFEE700BF0449000810B582B0BB
:102000000446002301930CE0134A52F824300133B4
:1020100042F82430114A1368013313606420FFF73B
:1020200027FB00231A4601A90D480068FEF709FEA8
:102030000128E9D10B4A52F82430013342F8243008
:10204000094A136801331360019B01330193074868
:1020500000F036FAE2E700BF182E0120302E0120F2
:10206000382E0120242E0120342E0120344900086E
:1020700000B583B0002301930023642201A907481F
:102080000068FEF708FF0128F6D1054800F018FAAD
:102090000199044801F0C6FAEEE700BF382E01208E
:1020A000404900085849000810B582B000220421B8
:1020B0000320FEF7A2FD194B186088B10024022C02
:1020C00016DC174B01930123009323464FF47A72D9
:1020D00014491548FFF73CF9012805D10134EEE712
:1020E000124800F0EDF9FEE7114800F0E9F9FEE7CB
:1020F000104B01930123009300234FF47A720E4991
:102100000E48FFF725F9012803D00D4800F0D8F953
:10211000FEE7FFF74DF9002002B010BD382E012078
:10212000402E01207C490008FD1F00085C49000882
:10213000884900083C2E0120A449000871200008AD
:10214000B4490008FEE7FEE700B583B0FEF75CFC8B
:102150000190019B03B05DF804FB704770470000DD
:10216000024B4FF000629A60704700BF00ED00E044
:10217000224B9B6803F00C03042B14D0082B16D0C1
:102180001BB11F4B1F4A1A6002E01D4B1D4A1A600B
:102190001A4B9B68C3F303131B4AD15C184A13689C
:1021A000CB4013607047164B184A1A60F0E7134B88
:1021B00059685A6802F03F0211F4800F13D0134B94
:1021C000B3FBF2F30D4A5268C2F3881202FB03F329
:1021D0000A4A5268C2F3014201325200B3FBF2F3E1
:1021E000074A1360D4E7074BB3FBF2F3034A526884
:1021F000C2F3881202FB03F3EAE700BF0038024093
:10220000080000200024F400D449000800127A00DD
:10221000BFF34F8F0549CA6802F4E062044B1343D1
:10222000CB60BFF34F8F00BFFDE700BF00ED00E0C4
:102230000400FA05F8B504460D4617461E46274821
:1022400000F024F92168264800F020F9616825484B
:1022500000F01CF9A168244800F018F9E16823484F
:1022600000F014F92169224800F010F96169214851
:1022700000F00CF9A169204800F008F9E1691F4855
:1022800000F004F91E4800F001F929461D4800F04D
:10229000FDF81D4CE16A1D4800F0F8F8216B1C4860
:1022A00000F0F4F8E16B1B4800F0F0F815F0800F37
:1022B0000AD115F4004F0CD1174800F0E7F8069941
:1022C000164800F0E3F8F8BD3946154800F0DEF88E
:1022D000EFE73146134800F0D9F8EDE7E44900088C
:1022E000F4490008044A0008144A0008244A000877
:1022F000344A0008444A0008544A0008644A000866
:10230000744A0008804A000800ED00E0904A000886
:10231000A04A0008B04A0008E04A0008E84A00085D
:10232000C04A0008D04A000838B583691B888B4230
:1023300001D0002038BD044603684568013B302BBE
:102340005ED8DFE803F03B211C1C5330332D1919F4
:102350005D19191919193619245D19275D395D5D43
:102360005D5D5D5D5D5D5D5D5D5D5D5D5D5D5D5D9D
:102370005D5D5D5D5D1919004FF0FF330360A3697A
:102380000233A3610120D5E700230360F7E70023B0
:102390000360F4E700232B606B60AB60EB60EEE75B
:1023A00000230360EBE7AB680360E8E7002303600A
:1023B000E5E700230360E2E7FFF72AFF11492868F9
:1023C00001F08AF940B96B6813B901232360D6E79D
:1023D000042B05D0082B06D04FF0FF332360CEE747
:1023E00002232360CBE703232360C8E72B68023B6B
:1023F000012B02D9AB680360C1E700230360BEE78D
:10240000002097E7004B000808B5FFF7A9FE024A35
:10241000024B9A6008BD00BF0000000800ED00E01C
:102420002DE9F04385B004460F4643563BBB0425D7
:1024300028462146ABBE0546384605B0BDE8F083C8
:1024400014F901CB03F110026A4402F810CC0133F5
:10245000AB42F5D310336B44002203F8102C4FF03D
:102460000408E94640464946ABBE8046761B002E2E
:10247000E2D03546102E28BF10250023E8E70E468F
:10248000F5E708B5FFF7CCFF08BD00000FB400B5B5
:1024900083B004AB53F8042B01938021074801F06B
:1024A000FFF8002804DC03B05DF804EB04B07047CB
:1024B00001460248FFF7E5FFF5E700BF442E012083
:1024C00010B5044601F020F901462046FFF7D9FF78
:1024D00001210248FFF7D5FF10BD00BF7C4A00086C
:1024E00008B503460C4A12685AB10B4A1068033308
:1024F00023F003030344094A934206D8064A1360B3
:1025000008BD054A06491160EFE701F0DFF80C232A
:1025100003604FF0FF30F3E7C42E012000FC0120E0
:1025200040310120132809D8064B53F83030B3F15D
:10253000FF3F05D0034B03EBC000704700207047FE
:10254000002070474C2F012030B513240025204671
:102550002946ABBE0446204630BD38B5044601F0DE
:10256000B5F80546FFF7F0FF2860204638BDB0F10A
:10257000FF3F00D0704708B5FFF7EFFF08BD000030
:1025800000B530B9044D182420462946ABBE044698
:10259000FEE7024DF7E700BF26000200230002001D
:1025A0002DE9F04184B0234F0197032603960023C1
:1025B0000293012401AD20462946ABBE80461E4B46
:1025C000C3F800800197039604230293204629460E
:1025D000ABBE8046194BC3F80080019703960823D1
:1025E000029320462946ABBE0446154B1C60B4F14D
:1025F000FF3F01D000230AE0104B1A68104B1A600D
:10260000F8E7104A4FF0FF3142F833100133132B33
:10261000F7DD0C4B084A12681A6000225A6007491D
:1026200009689960DA600649096819615A6104B05D
:10263000BDE8F081004B0008482F0120442F012005
:10264000402F01204C2F01202DE9F04383B081461B
:1026500088462A4B00934F23019315276C46384632
:102660002146ABBE0746AFBB244B002283F84F2068
:10267000009A3E463C463D4607E001321E46204B4E
:1026800043F8252001350124013292F90030FBB1D5
:1026900064B91C49C9560029F6DB092BF4D0082D72
:1026A00016DC222BE9D0272BE9D1E6E736B19E4292
:1026B000EAD1002313703E463C46E5E71149C9566E
:1026C000002901DB092BDFD1002313703446DBE73F
:1026D0003DB900E00025094B00221A70084A13603A
:1026E0000135074B002243F82520C9F80050C8F8EF
:1026F0000030FFF755FF03B0BDE8F083F02E012056
:10270000C82E0120934B000830B585B0019002918E
:102710000392062401AD20462946ABBE044620465E
:10272000FFF725FF05B030BD70B50D461446FFF725
:10273000F9FE68B10646224629460068FFF7E4FF25
:10274000B0F1FF3F03D07368201A0344736070BD7B
:1027500000F0BCFF092303604FF0FF30F7E7F0B54E
:1027600083B00C461546FFF7DDFEC0B10646022DCC
:102770001CD8012D21D0022D29D03368009301945B
:102780000A256F4628463946ABBE05462846FFF760
:10279000EEFE00282BDB7460204603B0F0BD00F095
:1027A00095FF092303604FF0FF30F6E700F08EFF3E
:1027B000162303604FF0FF30EFE74368E418DCD5E1
:1027C00000F084FF162303604FF0FF30E5E7036855
:1027D00000930C256F4628463946ABBE0546284671
:1027E000FFF7C5FEB0F1FF3FD7D00444C5E74FF077
:1027F000FF30D2E708B5FFF7B2FF08BD30B585B0AE
:10280000019002910392052401AD20462946ABBEFA
:1028100004462046FFF7ABFE05B030BD70B50D464F
:102820001446FFF77FFE70B106462246294600682F
:10283000FFF7E4FF031E11DB7268E01A02447260C6
:102840009C4207D070BD00F041FF092303604FF0A8
:10285000FF30F7E70020FFF780FEF3E74FF0FF308F
:10286000F0E730B583B00190022401AD204629463F
:10287000ABBE04462046FFF77AFE03B030BD000031
:1028800038B50446FFF74EFE80B10546601E0128AC
:1028900004D80C4B9A681B699A420ED02868FFF73F
:1028A000E0FF10B94FF0FF332B6038BD00F00EFF92
:1028B000092303604FF0FF30F7E74FF0FF332B6041
:1028C0000020F2E74C2F012070B50C46FFF72AFEDE
:1028D000A8B10646636843F4005363604FF4806315
:1028E000A3640C2528463146ABBE05462846FFF7B3
:1028F0003EFEB0F1FF3F01D02061002070BD00F02E
:10290000E5FE092303604FF0FF30F7E738B50546D1
:102910000C4658220021204600F0D0FE21462846D1
:10292000FFF7D2FF38BD38B5FFF7FCFD80B1054693
:10293000092420462946ABBE04462046012C06D079
:1029400000F0C4FE0446FFF7FFFD2060002038BD04
:1029500000F0BCFE092303600020F8E710B5044630
:102960000E4B1A784FF47A73B3FBF2F30C4A1068EB
:10297000B0FBF3F000F0AEF868B90F2C01D90120DC
:102980000AE0002221464FF0FF3000F07FF8054BAF
:102990001C60002000E0012010BD00BF0C000020E2
:1029A000080000201000002008B50B4B1A6842F404
:1029B00000721A601A6842F480621A601A6842F45F
:1029C00080721A60032000F043F80F20FFF7C6FF63
:1029D000FFF7C4FB002008BD003C0240014B186813
:1029E000704700BFF02F0120002808DB0901C9B2A1
:1029F00000F1604000F5614080F80013704700F07E
:102A00000F000901C9B2014B1954704714ED00E0E1
:102A100000B500F00700C0F1070CBCF1040F28BF9F
:102A20004FF0040C031D062B0FD9C31E4FF0FF3EC1
:102A30000EFA0CF021EA000199400EFA03FE22EA98
:102A40000E0241EA02005DF804FB0023EEE70000FD
:102A500010B50446C31E042B0FD80A4AD36823F4CA
:102A6000E0631B041B0C240204F4E064234343F0E2
:102A7000BF6343F40033D36010BD92210248FFF7D7
:102A8000B3FAEAE700ED00E0304B000870B5064607
:102A90000C4615460F2A0ED80F2C11D80B4BD868B0
:102AA0002A462146C0F30220FFF7B2FF0146304616
:102AB000FFF79AFF70BDAA210548FFF795FAEBE7EB
:102AC000AB210348FFF790FAE8E700BF00ED00E014
:102AD000304B00080138B0F1807F0BD24FF0E0237B
:102AE0005861054AF02182F82310002098610722DE
:102AF0001A6170470120704700ED00E008B5042816
:102B000007D068B94FF0E022136923F00403136182
:102B100008BD4FF0E022136943F004031361F7E7A7
:102B200040F2C9110148FFF75FFAEBE7304B0008AC
:102B3000002800F05B8270B582B0044603680F2B5A
:102B400039D8236813F0010F4DD063682BB1B3F56A
:102B5000803F02D0B3F5A02F32D1804B9B6803F0A9
:102B60000C03042B36D07D4B9B6803F00C03082B21
:102B70002BD06368B3F5803F5FD0B3F5A02F62D050
:102B8000764B1A6822F480321A601A6822F4802286
:102B90001A606368002B60D0FFF720FF05466F4B7B
:102BA0001B6813F4003F1ED1FFF718FF401B642879
:102BB000F5D9032021E2E8216948FFF715FAC0E7BB
:102BC000ED216748FFF710FAC7E7644B5B6813F421
:102BD000800FCED0614B1B6813F4003F03D06368B5
:102BE000002B00F00582236813F0020F66D0E36823
:102BF000012B41D823691F2B44D8584B9B6813F0F5
:102C00000C0F4AD0554B9B6803F00C03082B3FD0A8
:102C1000E368002B77D0534B01221A60FFF7DEFEEA
:102C200005464E4B1B6813F0020F63D1FFF7D6FE2B
:102C3000401B0228F5D90320DFE1484A136843F41A
:102C400080331360A5E7454B1A6842F480221A606E
:102C50001A6842F480321A609BE7FFF7BFFE054610
:102C60003E4B1B6813F4003FBDD0FFF7B7FE401B7F
:102C70006428F5D90320C0E140F21F113848FFF75E
:102C8000B3F9B7E74FF490713548FFF7ADF9B4E702
:102C9000324B5B6813F4800FBAD1304B1B6813F0D2
:102CA000020F03D0E368012B40F0A4812B4A136884
:102CB00023F0F803216943EAC1031360236813F08A
:102CC000080F51D06369012B2FD863699BB3254B43
:102CD0000122C3F8802EFFF781FE05461F4B5B6F74
:102CE00013F0020F40D1FFF779FE401B0228F5D9FF
:102CF000032082E1194A136823F0F803216943EAAB
:102D0000C1031360DAE7174B00221A60FFF766FE73
:102D10000546124B1B6813F0020FCFD0FFF75EFE83
:102D2000401B0228F5D9032067E14FF4B0710C482D
:102D3000FFF75AF9C9E70B4B0022C3F8802EFFF7C3
:102D40004DFE0546054B5B6F13F0020F0CD0FFF7ED
:102D500045FE401B0228F5D903204EE10038024011
:102D6000644B000800004742236813F0040F7CD036
:102D7000A368012B01D9052B38D1A44B1B6C13F090
:102D8000805F39D100230193A04B1A6C42F080522E
:102D90001A641B6C03F080530193019B01259C4B2B
:102DA0001B6813F4807F29D0A368012B3AD0052B30
:102DB0003ED0964B1A6F22F001021A671A6F22F06A
:102DC00004021A67A368002B3CD0FFF707FE0646F3
:102DD0008E4B1B6F13F0020F45D1FFF7FFFD801BD9
:102DE00041F288339842F3D9032006E14FF4C671CB
:102DF0008848FFF7F9F8C0E70025D0E7844A136850
:102E000043F480731360FFF7E9FD0646804B1B68AF
:102E100013F4807FC8D1FFF7E1FD801B0228F5D9AC
:102E20000320EAE0794A136F43F001031367C9E70F
:102E3000764B1A6F42F004021A671A6F42F00102D1
:102E40001A67BFE7FFF7CAFD0646704B1B6F13F00A
:102E5000020F08D0FFF7C2FD801B41F28833984271
:102E6000F3D90320C9E0002D3ED1A369022B41D83C
:102E7000A369002B00F0C080644A926802F00C0243
:102E8000082A00F09380022B7CD1E36913B1B3F5DB
:102E9000800F35D1236A3F2B38D8636A323BB3F5B4
:102EA000BF7F39D8A36A022B08D0082B3AD84FF439
:102EB000A87222FA03F313F0010F33D0E36A023B46
:102EC0000D2B35D8544B00221A66FFF787FD0546B7
:102ED0004E4B1B6813F0007F30D0FFF77FFD401B87
:102EE0000228F5D9032088E0484A136C23F0805368
:102EF0001364BAE740F2CF114648FFF775F8B7E719
:102F00004FF4EC714348FFF76FF8C3E740F2D91173
:102F10004048FFF769F8C0E74FF4ED713D48FFF70F
:102F200063F8BFE740F2DB113A48FFF75DF8C5E709
:102F30004FF4EE713748FFF757F8C3E7E369226AA9
:102F40001343626A43EA8213A26A5208013A43EACF
:102F50000243E26A43EA02632C4A53602E4B012289
:102F60001A66FFF73BFD0446284B1B6813F0007FF1
:102F700006D1FFF733FD001B0228F5D903203CE002
:102F800000203AE0244B00221A66FFF727FD044692
:102F90001E4B1B6813F0007F06D0FFF71FFD001BC0
:102FA0000228F5D9032028E0002026E0012B26D0B6
:102FB000164B5B6803F48001E269914221D103F072
:102FC0003F02216A8A421ED1616A47F6C0721A40E6
:102FD0008A4223D103F44032A16A8A4220D103F00D
:102FE0007063E26A93421DD1002006E00120704721
:102FF000012002E0012000E0002002B070BD0120AD
:10300000FBE70120F9E70120F7E700BF00380240A5
:1030100000700040644B0008000047420120ECE7CC
:103020000120EAE70120E8E708B5334B9B6803F08D
:103030000C03042B5BD0082B5BD12F4B5A6802F09A
:103040003F025B6813F4800F2CD02B4B5868C0F301
:1030500088104FEA401CBCEB000C6EEB0E0E4FEAE2
:103060008E1343EA9C634FEA8C11B1EB0C0163EBC6
:103070000E03DB0043EA5173C90011EB000C43F16E
:103080000003590200234FEA4C2041EADC5100F0D2
:1030900051F9194B5B68C3F3014301335B00B0FB8B
:1030A000F3F027E0144B5868C0F388104FEA401C37
:1030B000BCEB000C6EEB0E0E4FEA8E1343EA9C63E2
:1030C0004FEA8C11B1EB0C0163EB0E03DB0043EA1A
:1030D0005173C90011EB000C43F100039902002366
:1030E0004FEA8C2041EA9C5100F024F9D1E70348D3
:1030F00000E0034808BD00BF0038024000127A001B
:103100000024F400002800F0FA8070B50D46044653
:103110000368013B0E2B30D8072D34D87C4B1B683D
:1031200003F00F03AB4208D2EBB2794A1370136875
:1031300003F00F03AB4240F0E480236813F0020F6A
:1031400032D013F0040F04D0724A936843F4E05372
:103150009360236813F0080F04D06E4A936843F419
:1031600060439360A368C3B1C02B16D049D8A02B8D
:1031700013D00ED9B02B10D049E040F2512166484F
:10318000FEF732FFC8E740F252216348FEF72CFFFA
:10319000C4E7802B01D0902B39D15E4A936823F08D
:1031A000F003A1680B439360236813F0010F48D02C
:1031B0006368032B31D86368012B34D09A1E012A2F
:1031C00038D9544A126812F0020F00F09C8051491D
:1031D0008A6822F0030213438B60FFF7FFFB064669
:1031E0004C4B9B6803F00C036268B3EB820F28D052
:1031F000FFF7F4FB801B41F288339842F0D903209B
:1032000070E0E02BC9D0F02BC7D0D02BC5D040F256
:1032100075214148FEF7E8FEBFE74FF41F713E48B5
:10322000FEF7E2FEC7E73B4A126812F4003FCED138
:10323000012057E0374A126812F0007FC7D1012001
:1032400050E0334B1B6803F00F03AB4207D9EAB2DF
:103250002F4B1A701B6803F00F03AB4255D1236844
:1032600013F0040F14D0E3685BB1B3F5805F08D0AE
:10327000B3F5A05F05D0B3F5C05F02D0B3F5E05F52
:1032800031D1244A936823F4E053E1680B439360FF
:10329000236813F0080F15D023695BB1B3F5805F85
:1032A00008D0B3F5A05F05D0B3F5C05F02D0B3F589
:1032B000E05F1ED1174A936823F46043216943EA13
:1032C000C1039360FFF7B0FE124B9B68C3F3031377
:1032D000124AD35CD840124B1860124B1868FFF7A3
:1032E0003DFB002070BD40F2BA210B48FEF77CFE8A
:1032F000C7E740F2C1210848FEF776FEDAE7012071
:1033000070470120EEE70120ECE70120EAE700BF6B
:10331000003C024000380240644B0008D4490008D9
:103320000800002010000020014B1868704700BF03
:103330000800002053B94AB9002908BF00281CBF63
:103340004FF0FF314FF0FF3000F06AB9ADF1080CDB
:103350006DE904CE00F006F8DDF804E0DDE90223B3
:1033600004B070472DE9F047089D0C46002B4ED164
:1033700094468C458646B2FA82F262D94AB1C2F1CD
:103380002003914020FA03F30CFA02FC194300FADF
:1033900002FE4FEA1C471FFA8CF6B1FBF7F44FEA26
:1033A0001E4307FB141143EA014304FB06F1994253
:1033B0000AD91CEB030304F1FF3080F0138199421A
:1033C00040F21081023C6344591A1FFA8EF3B1FB9C
:1033D000F7F007FB101143EA014300FB06F69E429B
:1033E0000AD91CEB030300F1FF3180F0FD809E42FF
:1033F00040F2FA80634402389B1B40EA04400021FB
:103400001DB1D3400022C5E90032BDE8F0878B42F0
:1034100005D90DB1C5E9000100210846F5E7B3FA69
:1034200083F1002946D1A34202D39042C0F0F1803B
:10343000861A64EB03030120002DE6D0C5E9006382
:10344000E3E7002A40F09180A1EB0C044FEA1C480E
:103450001FFA8CF70121B4FBF8F64FEA1E4308FB74
:10346000164443EA044307FB06F0984208D91CEBD4
:10347000030306F1FF3402D2984200F2CE802646C2
:103480001C1A1FFA8EF3B4FBF8F008FB104443EA51
:10349000044300FB07F79F4208D91CEB030300F12C
:1034A000FF3402D29F4200F2B1802046DB1B40EA8B
:1034B0000640A5E7C1F120068B4022FA06F71F431C
:1034C00020FA06FC04FA01F343EA0C03F44000FA84
:1034D00001F8380C4FEA1349B4FBF0FE1FFA87FCE1
:1034E00000FB1E4449EA04440EFB0CF9A14502FA14
:1034F00001F20AD93C190EF1FF3A80F08580A1450E
:1035000040F28280AEF1020E3C44A4EB09041FFAA3
:1035100083F9B4FBF0F300FB134449EA044403FBD2
:103520000CFCA44507D93C1903F1FF3068D2A4452F
:1035300066D9023B3C4443EA0E40A0FB0293A4EB55
:103540000C049C42CE469C4652D34FD055B1B8EBAA
:103550000E0364EB0C0404FA06F6CB40CC401E4389
:10356000C5E900640021BDE8F087C2F1200320FA1C
:1035700003F10CFA02FC24FA03F394400C434FEAE3
:103580001C4800FA02FE1FFA8CF7B3FBF8F008FBA8
:103590001031230C43EA014300FB07F1994208D99B
:1035A0001CEB030300F1FF362CD299422AD90238D2
:1035B00063445B1AA4B2B3FBF8F108FB113344EA8D
:1035C000034401FB07F3A34208D91CEB040401F1F7
:1035D000FF3613D2A34211D902396444E41A41EAF6
:1035E000004138E70446EFE6084605E7C845ADD296
:1035F000B9EB020E63EB070C0138A7E73146EDE7A4
:10360000034698E73046D4E7D6467EE7634402385F
:103610004CE70646234608460EE7023E63442FE782
:10362000704700BF0FB407B5064904AB086853F8EC
:10363000042B8168019300F0F1F903B05DF804EB0D
:1036400004B070471400002030B51446002C9BB025
:1036500005461A4605DA8B2303604FF0FF301BB096
:1036600030BD4FF40273ADF80C3014BF04F1FF33DA
:103670002346029305934FF6FF7300910491ADF832
:103680000E3069461E9B00F0A3F8431CBCBF8B2381
:103690002B60002CE3D0009B00221A70DFE70000B3
:1036A00007B5009313460A46014603480068FFF732
:1036B000CBFF03B05DF804FB140000200244034676
:1036C000934200D1704703F8011BF9E7014B1868DA
:1036D000704700BF1400002010F8012B11F8013BC7
:1036E000012A28BF9A42F7D0D01A70470A44914263
:1036F00000F1FF3300D1704710B511F8014B03F80A
:10370000014F9142F9D110BD034613F8012B002A55
:10371000FBD1181A013870472DE9F0478E681F4613
:10372000BE420B6882460C4690462DD8B1F90C205B
:1037300012F4906F26D06569096905EB4505A3EB86
:10374000010905EBD5757B1C4B446D109D4238BFBC
:103750001D46530527D5294600F0CEFE064660B328
:1037600021694A46FFF7C2FFA38923F4906343F01F
:103770008003A381266165614E44A5EB090526609F
:10378000A5603E46BE4200D93E46206832464146CC
:1037900000F090FDA3689B1BA36023683344236063
:1037A0000020BDE8F0872A4600F02AFF06460028E0
:1037B000E0D12169504600F033FE0C23CAF80030F6
:1037C000A38943F04003A3814FF0FF30E9E70000F5
:1037D0002DE9F04F98468B891B069DB007460D4694
:1037E000144610D50B6973B9402100F085FE28609E
:1037F000286130B90C233B604FF0FF301DB0BDE8AD
:10380000F08F40236B610023099320238DF829302A
:10381000CDF80C803023DFF89C818DF82A304FF0F2
:10382000010923469A4613F8012B0AB1252AF9D13A
:10383000BAEB040B0BD05B46224629463846FFF70D
:103840006BFF013000F0A780099A5A4409929AF858
:103850000030002B00F09F8000234FF0FF32CDE9B5
:1038600005230AF1010A049307938DF853301A9344
:103870005446052214F8011B4E4800F081FD049ABD
:10388000D8B9D00644BF20238DF85330110744BF68
:103890002B238DF853309AF800302A2B15D0079A35
:1038A000544600204FF00A0C214611F8013B303BF2
:1038B000092B4BD9B0B1079214E0A0EB080309FA29
:1038C00003F313430493A246D2E7039B191D1B681D
:1038D0000391002BBBBF5B4242F0020207930793A8
:1038E000B8BF049223782E2B0AD163782A2B32D1C9
:1038F000039B1A1D1B68039243EAE373023405938A
:10390000DFF8C0A021780322504600F039FD38B11D
:10391000049BA0EB0A00402282401343013404932D
:1039200014F8011B24488DF82810062200F028FD09
:10393000002836D0214B1BBB039B073323F0070322
:1039400008330393099B334409936AE70CFB023263
:103950000C460120A8E700230134059319464FF0D7
:103960000A0C204610F8012B303A092A03D9002B03
:10397000C6D00591C4E70CFB012104460123F0E702
:1039800003AB00932A460E4B04A93846AFF30080E0
:10399000421C0646D6D1AB895B063FF52DAF099890
:1039A0002CE703AB00932A46054B04A9384600F0E8
:1039B000BBF9EDE7934C00089D4C000800000000A7
:1039C00019370008994C00089368013B002B10B48C
:1039D000936008DA9469A34201DB0A2903D15DF8F8
:1039E000044B00F0D2BB1368581C106019700846D5
:1039F0005DF8044B7047F8B506460F461446D518D7
:103A0000AC4201D1002007E014F8011B3A463046D1
:103A1000FFF7DAFF431CF3D1F8BD00002DE9F04FAA
:103A20000D469DB014469846064618B1036A0BB978
:103A300000F032FB6B6ED90705D4AB899A0502D42E
:103A4000A86D00F098FCAB891B0701D52B699BB9C9
:103A50002946304600F0D8FB70B16B6EDC0704D508
:103A60004FF0FF301DB0BDE8F08FAB899805F7D45B
:103A7000A86D00F081FCF3E70023099320238DF863
:103A80002930CDF80C803023DFF8AC818DF82A3056
:103A90004FF0010923469A4613F8012B0AB1252A53
:103AA000F9D1BAEB040B0BD05B46224629463046CF
:103AB000FFF7A1FF013000F0A780099A5A4409924C
:103AC0009AF80030002B00F09F8000234FF0FF3267
:103AD000CDE905230AF1010A049307938DF85330C9
:103AE0001A935446052214F8011B534800F048FC71
:103AF000049AD8B9D10644BF20238DF85330130758
:103B000044BF2B238DF853309AF800302A2B15D060
:103B1000079A544600204FF00A0C214611F8013B49
:103B2000303B092B4BD9B0B1079214E0A0EB08034E
:103B300009FA03F313430493A246D2E7039B191D2A
:103B40001B680391002BBBBF5B4242F0020207934C
:103B50000793B8BF049223782E2B0AD163782A2BBF
:103B600032D1039B1A1D1B68039243EAE3730234AC
:103B70000593DFF8D4A021780322504600F000FC22
:103B800038B1049BA0EB0A00402282401343013469
:103B9000049314F8011B29488DF82810062200F020
:103BA000EFFB00283FD0264B1BBB039B073323F0C2
:103BB000070308330393099B3B4409936AE70CFB13
:103BC00002320C460120A8E7002301340593194670
:103BD0004FF00A0C204610F8012B303A092A03D97D
:103BE000002BC6D00591C4E70CFB0121044601233C
:103BF000F0E703AB00932A46124B04A93046AFF31B
:103C000000800746781CD6D16B6ED90705D4AB89E6
:103C10009A0502D4A86D00F0AFFBAB895B063FF5B7
:103C20001FAF09981EE703AB00932A46054B04A972
:103C3000304600F079F8E4E7934C00089D4C00080A
:103C400000000000F7390008994C00082DE9F04702
:103C5000164698468A680B69DDF820909342B8BFF3
:103C60001346336091F8432007460C460AB10133EE
:103C700033602368990642BF336802333360256896
:103C800015F0060506D104F1190AE36832689B1A9B
:103C9000AB4226DC94F843302268003B18BF012376
:103CA00092062BD404F1430241463846C8470130FE
:103CB0001ED02368226903F00603042B02BFE568C7
:103CC0003368ED1AA3680CBF25EAE5750025934219
:103CD000C4BF9B1AED1800261A34B5421AD1002031
:103CE00008E00123524641463846C847013003D117
:103CF0004FF0FF30BDE8F0870135C6E7E1185A1CE8
:103D0000302081F84300224494F8451082F8431093
:103D10000233C7E70123224641463846C8470130EF
:103D2000E6D00136D9E700002DE9FF470F7E0C9E53
:103D3000782F914680460C469A4601F1430207D8F7
:103D4000622F0AD8002F00F0DD80582F00F0C380CA
:103D500004F1420684F842703AE0A7F16303152BA0
:103D6000F6D801A151F823F0C13D0008D53D000867
:103D7000513D0008513D0008513D0008513D0008EB
:103D8000D53D0008513D0008513D0008513D000857
:103D9000513D0008EB3E0008633E0008A33E0008CA
:103DA000513D0008513D00080D3F0008513D0008FD
:103DB000633E0008513D0008513D0008AB3E00083D
:103DC00033681A1D1B68326004F1420684F84230E1
:103DD0000123A8E031682368081D30601E0601D564
:103DE0000D6803E05D06FBD5B1F900506168002D58
:103DF00078DA2D20002984F84300A1602DDA5E488E
:103E00006D420A231646B5FBF3F103FB1157C75D5C
:103E100006F8017D2F46BB420D46F4D9082B0BD185
:103E20002368DF0708D5236961689942DEBF302324
:103E300006F8013C06F1FF36921B2261CDF800A086
:103E40004B4603AA21464046FFF700FF01306FD1E1
:103E50004FF0FF3004B0BDE8F08723F00403236087
:103E6000CDE721683368080653F8045B02D449069D
:103E700048BFADB26F2F4048336014BF0A230823F8
:103E8000002184F843106668A660002EBADB216822
:103E900021F004012160002DB4D1002EB2D11646CC
:103EA000BCE7236843F0200323603448782784F874
:103EB0004570236831681F0651F8045B02D45F0621
:103EC00048BFADB23160D90744BF43F0200323603F
:103ED0001DB11023D4E72848E9E7236823F0200325
:103EE0002360F6E724480A23CDE733682568616933
:103EF000181D30602E061B6801D5196002E06806A7
:103F0000FBD5198000232361164697E733681A1DF5
:103F100032601E6862680021304600F031FA08B154
:103F2000801B606063682361002384F8433085E769
:103F30002369324649464046D047013088D023683D
:103F40009B0714D4E068039B9842B8BF184681E7EA
:103F50000123324649464046D04701303FF478AF0E
:103F60000135E36803995B1AAB42F1DCEAE700250F
:103F700004F11906F5E700BFA44C0008B54C000891
:103F8000002310B50446C0E90033C0E90433836060
:103F900081814366C2818361194608225C30FFF744
:103FA0008DFB0D4B63620D4BA3620D4BE3620D4B1A
:103FB00023630D4B24629C4206D003F168029442B5
:103FC00002D0D0339C4205D104F15800BDE8104026
:103FD00000F0D0B910BD00BF05410008274100081E
:103FE0005F41000883410008F42F0120024A034981
:103FF000034800F069B800BF64000020654700086E
:104000001800002041680C4B994210B5044601D0BD
:1040100000F0A8FBA168094B994202D0204600F0AD
:10402000A1FBE168064B994204D02046BDE8104050
:1040300000F098BB10BD00BFF42F01205C300120C0
:10404000C430012010B50B4B0B4C0C4A1A602046B3
:1040500000220421FFF794FF04F1680001220921E6
:10406000FFF78EFF04F1D0000222BDE810401221BC
:10407000FFF786BF2C310120F42F0120ED3F00080F
:10408000014800F078B900BF31310120014800F04B
:1040900073B900BF3131012010B50446FFF7F0FFBE
:1040A000236A1BB1BDE81040FFF7F0BF044B236249
:1040B000044B1B68002BF5D1FFF7C4FFF2E700BFEC
:1040C000054000082C3101202DE9F84307468846B9
:1040D00014460026D4E90195B9F1010905D52468F3
:1040E000002CF7D13046BDE8F883AB89012B07D906
:1040F000B5F90E30013303D029463846C047064390
:104100006835E9E710B50C46B1F90E1000F00EF96C
:104110000028ABBF636DA3891B1823F48053ACBF89
:104120006365A38110BD2DE9F0411F468B89DB0536
:1041300005460C46164605D5B1F90E10022300229D
:1041400000F0E2F8A389B4F90E1023F48053A381A0
:1041500032463B462846BDE8F04100F0F9B810B5BC
:104160000C46B1F90E1000F0CFF8431CA38915BF1F
:10417000606523F4805343F48053A38118BFA38167
:1041800010BDB1F90E1000F0AFB8F8B50E461446E8
:10419000054618B1036A0BB9FFF77EFFA369A36058
:1041A000A3891A0701D5236943B92146284600F09F
:1041B0002BF818B14FF0FF373846F8BD2368226955
:1041C000981A6369F6B28342374605DC21462846D1
:1041D00000F0C8FA0028EDD1A368013BA360236872
:1041E0005A1C22601E706269431C9A4204D0A38943
:1041F000DB07E1D50A2EDFD12146284600F0B2FACE
:104200000028D9D0D6E7000038B5294B05461868F4
:104210000C4618B1036A0BB9FFF73EFFB4F90C3036
:10422000190722D4DA0607D409222A6043F0400392
:10423000A3814FF0FF3033E0580712D5616B41B1D5
:1042400004F14403994202D0284600F0E9F8002323
:104250006363A38923F02403A3810023636023699C
:104260002360A38943F00803A38123694BB9A38981
:1042700003F42073B3F5007F03D02146284600F0F5
:10428000BFFAB4F90C3013F001020AD00022A26088
:1042900062695242A261226942B913F08000C5D11D
:1042A00038BD990758BF6269A260F4E70020F7E7BC
:1042B00014000020884210B501EB020402D98442A8
:1042C000234607D8431EA14208D011F8012B03F85A
:1042D000012FF8E7024401468A4200D110BD13F8CD
:1042E000014D02F8014DF7E738B5064D00230446AD
:1042F00008462B60FEF7C4FA431C02D12B6803B1B9
:10430000236038BDEC2F012038B5074D0446084620
:10431000114600222A601A46FEF76CFA431C02D1AD
:104320002B6803B1236038BDEC2F012038B5074D51
:1043300004460846114600222A601A46FEF7F4F9A0
:10434000431C02D12B6803B1236038BDEC2F012040
:1043500038B5074D04460846114600222A601A4621
:10436000FEF75CFA431C02D12B6803B1236038BD11
:10437000EC2F0120704770477047000000000000DC
:1043800001F0FF01102A2BDB10F0070F08D010F806
:10439000013B013A8B422DD010F0070F42B3F6D10A
:1043A000F0B441EA012141EA014122F007047FF023
:1043B00000070023F0E80256083C85EA010586EA7A
:1043C000010685FA47F5A3FA87F586FA47F6A5FAB6
:1043D00087F68EB9EED1F0BC01F0FF0102F00702C2
:1043E00032B110F8013B013A83EA010313B1F8D16D
:1043F0000020704701387047002D06BF354603384E
:10440000073815F0010F07D1013015F4807F02BF86
:10441000013015F4C03F0130F0BC0138704700BFD7
:1044200038B50546002941D051F8043C0C1F002B3B
:10443000B8BFE41800F0D8F81D4A136833B96360B8
:1044400014602846BDE8384000F0D4B8A34208D92B
:10445000206821188B4201BF19685B680918216028
:10446000EDE71A465B680BB1A342FAD91168501800
:10447000A0420BD120680144501883421160E0D162
:1044800018685B68536008441060DAE702D90C23AF
:104490002B60D6E7206821188B4204BF19685B683F
:1044A000636004BF091821605460CAE738BD00BFCB
:1044B0003831012070B50F4E0C463168054611B9F0
:1044C00000F0FCF930602146284600F0F7F9431C63
:1044D00003D14FF0FF34204670BDC41C24F0030408
:1044E000A042F8D0211A284600F0E8F90130F2D1B4
:1044F000EFE700BF343101202DE9F041CD1C25F05C
:10450000030508350C2D38BF0C25002D064601DBB0
:10451000A94204D90C2333600020BDE8F081314F5B
:1045200000F062F83B681C4644BB29463046FFF762
:10453000C1FF431C044650D13C682146002941D1AB
:10454000002C44D02368304604EB030800F0B6F991
:1045500080453CD121686D1A29463046FFF7AAFFF5
:10456000013034D023682B4423603B68002B36D0C5
:104570005A68A24229D100225A600EE02268521BDA
:104580001DD40B2A16D96119A342256018BF5960A2
:10459000636808BF396062514B60304600F02AF80A
:1045A00004F10B00231D20F00700C21AB5D01B1A1E
:1045B000A350B2E7A3426268DED13A60EDE723463A
:1045C0006468B1E70C464968B8E71346CEE70C23A8
:1045D0003360304600F00EF89EE70560DDE75B6073
:1045E000FFDE00BF383101200148FFF7C4BE00BF25
:1045F000303101200148FFF7BFBE00BF303101203C
:104600002DE9F041804615460C4621B9BDE8F04140
:104610001146FFF771BF2AB9FFF702FF00242046B9
:10462000BDE8F08100F05AF98542064602D8B5EBA4
:10463000500FF4D829464046FFF75EFF0746002892
:10464000ECD0B5422A46214628BF3246FFF74EF845
:1046500021464046FFF7E4FE3C46E0E7B1F90C2076
:104660002DE9F041170705460C4656D44B68002B40
:1046700002DC0B6C002B3DDDE66A002E3AD00023F5
:1046800012F480522F68216A2B6025D0626DA389B5
:10469000580705D56368D21A636B0BB1236CD21A25
:1046A000216AE66A00232846B047411C24D0002333
:1046B000636023692360A389DA0400D56065616BB8
:1046C0002F60B9B104F14403994202D02846FFF7A4
:1046D000A7FE002363630DE001232846B047461C74
:1046E0000246D4D12B68002BD1D01D2B01D0162B24
:1046F0002BD12F6000202FE02A68B4F90C3042B192
:104700001D2A01D0162A22D1002363602369236069
:10471000D5E7626022692260CEE70F69002FE9D0F9
:1047200093070E6808BF4B690F6018BF0023A6EB04
:1047300007088B60B8F1000FDCDD216AA66A4346EA
:104740003A462846B047002808DCB4F90C3043F05C
:104750004003A3814FF0FF30BDE8F0810744A8EB90
:104760000008E7E738B50B6905460C4613B9002584
:10477000284638BD18B1036A0BB9FFF78DFCB4F9B0
:104780000C30002BF3D0626ED00704D4990502D40C
:10479000A06DFFF7F0FD28462146FFF75FFF636E2F
:1047A000DA070546E4D4A3899B05E1D4A06DFFF7A1
:1047B000E3FDDDE770B50C46B1F90E10002996B0A7
:1047C00015461E460DDAA38913F0800F4FF0000145
:1047D00014BF40234FF48063002031602B6016B07B
:1047E00070BD6A4600F048F80028ECDB019901F43E
:1047F0007041A1F50053594259414FF48063EBE7F2
:104800008B89F7B59D0706460C4607D504F147038B
:10481000236023610123636103B0F0BD01AB6A46ED
:10482000FFF7C8FF009F054639463046FFF764FE94
:1048300048B9B4F90C309A05EED423F0030343F0E1
:104840000203A381E2E7A389206043F08003A381F0
:10485000019BC4E904075BB1B4F90E10304600F0C7
:104860001DF828B1A38923F0030343F00103A381BA
:10487000A3891D43A581CFE738B5074D0023044622
:10488000084611462B60FEF741F8431C02D12B6805
:1048900003B1236038BD00BFEC2F012038B5064DB1
:1048A0000023044608462B60FEF73DF8431C02D166
:1048B0002B6803B1236038BDEC2F012038B5064DBD
:1048C0000023044608462B60FDF70AFE431C02D174
:1048D0002B6803B1236038BDEC2F012051F8043C54
:1048E000181F002BBCBF0B58C018704749444C45DB
:1048F00000000000546D725100000000546D7220E1
:104900005376630057726F6E6720706172616D65D8
:10491000746572732076616C75653A2066696C65A2
:10492000202573206F6E206C696E652025640D0A4A
:104930000000000053656E646572205461736B0063
:104940005265636569766572205461736B20727578
:104950006E6E696E670A0000256900004572726F0D
:1049600072206372656174696E67206D657373612F
:1049700067652071756575650000000053656E649C
:1049800065725461736B00004572726F72206372BE
:10499000656174696E672073656E64657220746109
:1049A000736B000052656365697665725461736B61
:1049B000000000004572726F722063726561746955
:1049C0006E67207265636569766572207461736BCA
:1049D00000000000000000000000000001020304CD
:1049E00006070809537461636B206672616D653A4E
:1049F0000A000000205230203D2020253038580A7F
:104A000000000000205231203D2020253038580A77
:104A100000000000205232203D2020253038580A66
:104A200000000000205233203D2020253038580A55
:104A30000000000020523132203D20253038580A35
:104A400000000000204C52203D2020253038580A1C
:104A500000000000205043203D2020253038580A17
:104A60000000000020505352203D20253038580AC5
:104A7000000000004653522F4641523A0A000000FF
:104A80002043465352203D2020253038580A00004C
:104A90002048465352203D2020253038580A000037
:104AA0002044465352203D2020253038580A00002B
:104AB0002041465352203D2020253038580A00001E
:104AC000204D4D464152203D20253038580A0000E7
:104AD0002042464152203D2020253038580A00000F
:104AE0004D6973630A000000204C522F4558435F04
:104AF00052455455524E3D20253038580A0000008A
:104B00003A7474005B486172644661756C745D0A46
:104B1000000000005B4275734661756C745D0A00AD
:104B20005B55736167654661756C745D0A000000D2
:104B30002E2E5C73797374656D5C7372635C737431
:104B40006D333266342D68616C5C73746D3332661C
:104B50003478785F68616C5F636F727465782E6318
:104B6000000000002E2E5C73797374656D5C7372A7
:104B7000635C73746D333266342D68616C5C73747E
:104B80006D3332663478785F68616C5F7263632E70
:104B900063000020202020202020202028282828F2
:104BA00028202020202020202020202020202020FD
:104BB000202020881010101010101010101010104D
:104BC000101010040404040404040404041010105D
:104BD0001010101041414141414101010101010109
:104BE0000101010101010101010101010101101097
:104BF00010101010424242424242020202020202DD
:104C00000202020202020202020202020202101068
:104C10001010200000000000000000000000000054
:104C20000000000000000000000000000000000084
:104C30000000000000000000000000000000000074
:104C40000000000000000000000000000000000064
:104C50000000000000000000000000000000000054
:104C60000000000000000000000000000000000044
:104C70000000000000000000000000000000000034
:104C80000000000000000000000000000000000024
:104C9000000000232D302B2000686C4C00656667F7
:104CA00045464700303132333435363738394142A2
:104CB0004344454600303132333435363738396174
:064CC000626364656600FA
:084CC8009CE6FF7F01000000E3
:104CD00078563412AAAAAAAA0024F40001FFFFFF02
:104CE000100000001800002000000000F42F012038
:104CF0005C300120C43001200000000000000000F2
:104D000000000000000000000000000000000000A3
:104D10000000000000000000000000000000000093
:104D20000000000000000000000000000000000083
:104D3000000000000000000003000000F42F01202C
:044D400032547698DB
:04000005080002B934
:00000001FF
